:020000040800F2
:1000000000200020890300082D03000833030008A6
:10001000390300083F030008450300080000000002
:100020000000000000000000000000004B0300087A
:100030005703000800000000630300086F03000876
:10004000D1030008D1030008D1030008D103000840
:10005000D1030008D1030008D1030008D103000830
:10006000D1030008D1030008D1030008D103000820
:10007000D1030008D1030008D1030008D103000810
:10008000D1030008D1030008D103000800000000DC
:10009000000000000000000000000000D103000884
:1000A000D1030008D1030008D1030008D1030008E0
:1000B000D1030008D1030008D1030008D1030008D0
:1000C000D10300080000000000000000D103000878
:1000D000D1030008D1030008D1030008D1030008B0
:1000E000D1030008D1030008D1030008000000007C
:1000F0000000000000000000000000000000000000
:1001000000000000000000000000000000000000EF
:100110000000000000000000D1030008D103000827
:1001200000000000000000000000000000000000CF
:1001300000000000000000000000000000000000BF
:1001400000000000000000000000000000000000AF
:10015000000000000000000000000000000000009F
:10016000000000000000000000000000000000008F
:10017000000000000000000000000000000000007F
:10018000000000000000000000000000000000006F
:10019000000000000000000000000000000000005F
:1001A000000000000000000000000000000000004F
:1001B000000000000000000000000000000000003F
:1001C0000000000000000000000000005FF808F1DF
:1001D00010B5054C237833B9044B13B10448AFF381
:1001E00000800123237010BD0C00002000000000DF
:1001F000C814000808B5034B1BB103490348AFF30B
:10020000008008BD0000000010000020C814000895
:1002100080B500AF00F010FC00F00FF800F048F8D7
:1002200000F0D8F800F088FA41F2883000F0ACFA1B
:1002300041F2883000F054FBFEE780B590B000AF8B
:1002400007F1180328220021184601F035F93B1D5B
:1002500000221A605A609A60DA601A610223BB6158
:100260000123BB621023FB6200237B6307F11803A9
:10027000184600F043FD0346002B01D000F02EF895
:100280000F237B600023BB600023FB6000233B61E6
:1002900000237B613B1D0021184600F0B1FF03469F
:1002A000002B01D000F01AF800BF4037BD4680BDDA
:1002B00080B483B000AF084B9B69074A43F020032A
:1002C0009361054B9B6903F020037B607B6800BF53
:1002D0000C37BD4680BC70470010024080B400AFB0
:1002E00072B600BFFEE7000080B483B000AF0E4BD3
:1002F0009B690D4A43F0010393610B4B9B6903F02B
:1003000001037B607B68084BDB69074A43F080533D
:10031000D361054BDB6903F080533B603B6800BF52
:100320000C37BD4680BC70470010024080B400AF5F
:10033000FEE780B400AFFEE780B400AFFEE780B414
:1003400000AFFEE780B400AFFEE780B400AF00BFAF
:10035000BD4680BC704780B400AF00BFBD4680BCC6
:10036000704780B400AF00BFBD4680BC704780B509
:1003700000AF00F09FFB00BF80BD80B400AF00BFA6
:10038000BD4680BC704700000C480D490D4A002353
:1003900002E0D458C4500433C4188C42F9D30A4A3A
:1003A0000A4C002301E013600432A242FBD3FFF7A2
:1003B000E4FF01F05DF8FFF72BFF7047000000201D
:1003C0000C000020181500080C0000202C00002054
:1003D000FEE7000080B500AF00F0AEF9634B9B690B
:1003E000624A43F004039361614B1B68604A23F047
:1003F000020313605E4B1B685D4A43F00103136008
:100400005B4B1B685A4A23F008031360584B1B6868
:10041000574A23F004031360554B1B68544A23F0DA
:1004200020031360524B1B68514A43F010031360C2
:100430004F4B1B684E4A23F0800313604C4B1B68E4
:100440004B4A23F040031360494B1B68484A23F48E
:1004500000731360464B1B68454A43F48073136076
:10046000434B1B68424A23F400631360404B1B68F4
:100470003F4A23F4806313603D4B1B683C4A23F4DE
:10048000005313603A4B1B68394A43F4805313609E
:10049000374B1B68364A23F400431360344B1B6808
:1004A000334A23F480431360314B5B68304A23F0B6
:1004B000020353602E4B5B682D4A43F001035360E7
:1004C0002B4B5B682A4A23F008035360284B5B6878
:1004D000274A23F004035360254B5B68244A23F02A
:1004E00020035360224B5B68214A43F010035360A2
:1004F0001F4B5B681E4A23F0800353601C4B5B68F4
:100500001B4A23F040035360194B5B68184A23F4DD
:1005100000735360164B5B68154A43F48073536055
:10052000134B5B68124A23F400635360104B5B6803
:100530000F4A23F4806353600D4B5B680C4A23F42D
:10054000005353600A4B5B68094A43F4805353607D
:10055000074B5B68064A23F400435360044B5B6817
:10056000034A23F48043536000BF80BD0010024063
:100570000008014080B483B000AF78607B680B2B2B
:1005800000F2D28001A252F823F000BFBD0500089E
:10059000E9050008F90500081D06000841060008E5
:1005A0005D06000881060008AD060008C3060008C5
:1005B000F5060008290700081F0700085D4B4FF4E7
:1005C00080721A615B4B4FF400721A61594B4FF401
:1005D00080621A61574B02221A61564B04221A613B
:1005E000544B01221A619FE0524B4FF480721A6102
:1005F000504B04221A6197E04E4B4FF480721A61FF
:100600004C4B4FF400721A614A4B01221A61494B5C
:1006100002221A61474B08221A6185E0454B4FF4CC
:1006200000721A61434B4FF480621A61414B012200
:100630001A61404B02221A613E4B08221A6173E094
:100640003C4B4FF480621A613A4B01221A61394BDC
:1006500004221A61374B08221A6165E0354B4FF4CA
:1006600000721A61334B4FF480621A61314B0222DF
:100670001A61304B04221A612E4B08221A6153E092
:100680002C4B4FF480721A612A4B4FF400721A619E
:10069000284B4FF480621A61264B02221A61254BC7
:1006A00004221A61234B08221A613DE0214B4FF4CA
:1006B00080621A611F4B01221A611E4B02221A61CD
:1006C00032E01C4B4FF480721A611A4B4FF40072E7
:1006D0001A61184B4FF480621A61164B01221A619D
:1006E000144B02221A61134B04221A61114B082287
:1006F0001A6119E00F4B4FF400721A610D4B4FF461
:1007000080621A610B4B01221A610A4B02221A61A4
:10071000084B04221A61074B08221A6104E0054BBA
:100720004FF400621A6100BF00BF0C37BD4680BCA9
:10073000704700BF0008014080B400AF114B4FF07C
:1007400080721A610F4B4FF000721A610D4B4FF01F
:1007500080621A610B4B4FF000621A61094B4FF433
:1007600080321A61074B4FF400321A61054B4FF487
:1007700080221A61034B4FF400221A6100BFBD466C
:1007800080BC70470008014080B582B000AF78603F
:100790000920FFF7EFFE4FF4FA7000F0A7F9FFF71A
:1007A000CBFF4FF4FA7000F0A1F90820FFF7E2FE4A
:1007B0004FF4FA7000F09AF9FFF7BEFF4FF4FA70A9
:1007C00000F094F90720FFF7D5FE4FF4FA7000F01F
:1007D0008DF9FFF7B1FF4FF4FA7000F087F90620AA
:1007E000FFF7C8FE4FF4FA7000F080F9FFF7A4FF9E
:1007F0004FF4FA7000F07AF90520FFF7BBFE4FF4D2
:10080000FA7000F073F9FFF797FF4FF4FA7000F0F9
:100810006DF90420FFF7AEFE4FF4FA7000F066F9B0
:10082000FFF78AFF4FF4FA7000F060F90320FFF73A
:10083000A1FE4FF4FA7000F059F9FFF77DFF4FF475
:10084000FA7000F053F90220FFF794FE4FF4FA70AB
:1008500000F04CF9FFF770FF4FF4FA7000F046F922
:100860000120FFF787FE4FF4FA7000F03FF9FFF721
:1008700063FF4FF4FA7000F039F90020FFF77AFEB9
:100880004FF4FA7000F032F9FFF756FF4FF4FA70A8
:1008900000F02CF90B20FFF76DFEC82000F026F9C0
:1008A000FFF74AFFC82000F021F90B20FFF762FE96
:1008B000C82000F01BF9FFF73FFFC82000F016F931
:1008C0000B20FFF757FEC82000F010F9FFF734FFA8
:1008D0004FF4FA7000F00AF900BF0837BD4680BD3A
:1008E00080B582B000AF78600020FFF743FE4FF480
:1008F000FA7000F0FBF8FFF71FFF4FF4FA7000F0FA
:10090000F5F80120FFF736FE4FF4FA7000F0EEF82C
:10091000FFF712FF4FF4FA7000F0E8F80220FFF73B
:1009200029FE4FF4FA7000F0E1F8FFF705FF4FF4ED
:10093000FA7000F0DBF80320FFF71CFE4FF4FA70AA
:1009400000F0D4F8FFF7F8FE4FF4FA7000F0CEF89C
:100950000420FFF70FFE4FF4FA7000F0C7F8FFF71E
:10096000EBFE4FF4FA7000F0C1F80520FFF702FE2D
:100970004FF4FA7000F0BAF8FFF7DEFE4FF4FA70A9
:1009800000F0B4F80620FFF7F5FD4FF4FA7000F020
:10099000ADF8FFF7D1FE4FF4FA7000F0A7F807208A
:1009A000FFF7E8FD4FF4FA7000F0A0F8FFF7C4FE7F
:1009B0004FF4FA7000F09AF80820FFF7DBFD4FF4CF
:1009C000FA7000F093F8FFF7B7FE4FF4FA7000F0FA
:1009D0008DF80920FFF7CEFD4FF4FA7000F086F88D
:1009E000FFF7AAFE4FF4FA7000F080F80B20FFF733
:1009F000C1FDC82000F07AF8FFF79EFEC82000F085
:100A000075F80B20FFF7B6FDC82000F06FF8FFF770
:100A100093FEC82000F06AF80B20FFF7ABFDC8205A
:100A200000F064F8FFF788FE4FF4FA7000F05EF80B
:100A300000BF0837BD4680BD80B500AF032000F081
:100A400029F90F2000F006F8FFF74EFC00231846A6
:100A500080BD000080B582B000AF7860124B1A688C
:100A6000124B1B7819464FF47A73B3FBF1F3B2FBC8
:100A7000F3F3184600F035F90346002B01D00123AB
:100A80000EE07B680F2B0AD8002279684FF0FF3008
:100A900000F00BF9064A7B681360002300E0012395
:100AA00018460837BD4680BD000000200800002021
:100AB0000400002080B400AF054B1B781A46054B9C
:100AC0001B681344034A136000BFBD4680BC7047D7
:100AD000080000202800002080B400AF024B1B68F3
:100AE0001846BD4680BC70472800002080B584B001
:100AF00000AF7860FFF7F0FFB8607B68FB60FB68D1
:100B0000B3F1FF3F05D00A4B1B781A46FB6813442C
:100B1000FB6000BFFFF7E0FF0246BB68D31AFA682C
:100B20009A42F7D800BF00BF1037BD4680BD00BF56
:100B30000800002080B485B000AF78607B6803F0C7
:100B40000703FB600C4BDB68BB60BA684FF6FF0322
:100B50001340BB60FB681A02BB68134343F0BF63DA
:100B600043F40033BB60044ABB68D36000BF143752
:100B7000BD4680BC704700BF00ED00E080B400AF10
:100B8000044BDB681B0A03F007031846BD4680BC14
:100B9000704700BF00ED00E080B483B000AF0346B3
:100BA0003960FB7197F90730002B0ADB3B68DAB23A
:100BB0000C4997F907301201D2B20B4483F8002395
:100BC0000AE03B68DAB20849FB7903F00F03043B03
:100BD0001201D2B20B441A7600BF0C37BD4680BC5E
:100BE000704700BF00E100E000ED00E080B489B094
:100BF00000AFF860B9607A60FB6803F00703FB613F
:100C0000FB69C3F10703042B28BF0423BB61FB6905
:100C10000433062B02D9FB69033B00E000237B6110
:100C20004FF0FF32BB6902FA03F3DA43BB681A40A4
:100C30007B699A404FF0FF317B6901FA03F3D94396
:100C40007B680B40134318462437BD4680BC704771
:100C500080B582B000AF78607B68013BB3F1807FE4
:100C600001D301230FE00A4A7B68013B53600F2147
:100C70004FF0FF30FFF790FF054B00229A60044BC6
:100C800007221A60002318460837BD4680BD00BF02
:100C900010E000E080B582B000AF78607868FFF7C0
:100CA00049FF00BF0837BD4680BD80B586B000AFA4
:100CB0000346B9607A60FB7300237B61FFF75EFF38
:100CC00078617A68B9687869FFF790FF024697F90A
:100CD0000F3011461846FFF75FFF00BF1837BD46BB
:100CE00080BD80B582B000AF78607868FFF7B0FF54
:100CF000034618460837BD4680BD000080B586B063
:100D000000AF78607B68002B01D1012372E27B6821
:100D10001B6803F00103002B00F08780924B5B6897
:100D200003F00C03042B0CD08F4B5B6803F00C0317
:100D3000082B12D18C4B5B6803F48033B3F5803FF2
:100D40000BD1894B1B6803F40033002B6CD07B68FC
:100D50005B68002B68D101234CE27B685B68B3F5CC
:100D6000803F06D1804B1B687F4A43F48033136079
:100D70002EE07B685B68002B0CD17B4B1B687A4AAA
:100D800023F480331360784B1B68774A23F4802365
:100D900013601DE07B685B68B3F5A02F0CD1724B2C
:100DA0001B68714A43F4802313606F4B1B686E4AC3
:100DB00043F4803313600BE06B4B1B686A4A23F4E7
:100DC00080331360684B1B68674A23F480231360E9
:100DD0007B685B68002B13D0FFF77EFE386108E06C
:100DE000FFF77AFE02463B69D31A642B01D903232D
:100DF00000E25D4B1B6803F40033002BF0D014E0DD
:100E0000FFF76AFE386108E0FFF766FE02463B69BD
:100E1000D31A642B01D90323ECE1534B1B6803F471
:100E20000033002BF0D100E000BF7B681B6803F0AB
:100E30000203002B63D04C4B5B6803F00C03002BC8
:100E40000BD0494B5B6803F00C03082B1CD1464BBD
:100E50005B6803F48033002B16D1434B1B6803F00F
:100E60000203002B05D07B681B69012B01D00123F5
:100E7000C0E13D4B1B6823F0F8027B685B69DB0037
:100E8000394913430B603AE07B681B69002B20D083
:100E9000364B01221A60FFF71FFE386108E0FFF7AA
:100EA0001BFE02463B69D31A022B01D90323A1E1A1
:100EB0002D4B1B6803F00203002BF0D02A4B1B685C
:100EC00023F0F8027B685B69DB00274913430B6062
:100ED00015E0264B00221A60FFF7FEFD386108E09E
:100EE000FFF7FAFD02463B69D31A022B01D903230F
:100EF00080E11D4B1B6803F00203002BF0D17B68DF
:100F00001B6803F00803002B3AD07B689B69002B19
:100F100019D0174B01221A60FFF7DEFD386108E097
:100F2000FFF7DAFD02463B69D31A022B01D90323EE
:100F300060E10D4B5B6A03F00203002BF0D001204F
:100F400000F078FA1CE00A4B00221A60FFF7C4FD9B
:100F500038610FE0FFF7C0FD02463B69D31A022B50
:100F600008D9032346E100BF0010024000004242BE
:100F700080044242924B5B6A03F00203002BE9D1EA
:100F80007B681B6803F00403002B00F0A68000239D
:100F9000FB758B4BDB6903F08053002B0DD1884B25
:100FA000DB69874A43F08053D361854BDB6903F0EB
:100FB0008053BB60BB680123FB75824B1B6803F445
:100FC0008073002B18D17F4B1B687E4A43F48073DB
:100FD0001360FFF781FD386108E0FFF77DFD0246F1
:100FE0003B69D31A642B01D9032303E1754B1B68BA
:100FF00003F48073002BF0D07B68DB68012B06D1F3
:101000006F4B1B6A6E4A43F0010313622DE07B684D
:10101000DB68002B0CD16A4B1B6A694A23F0010381
:101020001362674B1B6A664A23F0040313621CE0D9
:101030007B68DB68052B0CD1614B1B6A604A43F06F
:10104000040313625E4B1B6A5D4A43F001031362A3
:101050000BE05B4B1B6A5A4A23F001031362584BA7
:101060001B6A574A23F0040313627B68DB68002B7A
:1010700015D0FFF731FD38610AE0FFF72DFD02467C
:101080003B69D31A41F28832934201D90323B1E07C
:101090004B4B1B6A03F00203002BEED014E0FFF76A
:1010A0001BFD38610AE0FFF717FD02463B69D31AC2
:1010B00041F28832934201D903239BE0404B1B6AE3
:1010C00003F00203002BEED1FB7D012B05D13C4B3D
:1010D000DB693B4A23F08053D3617B68DB69002BDB
:1010E00000F08780364B5B6803F00C03082B61D05F
:1010F0007B68DB69022B46D1334B00221A60FFF775
:10110000EBFC386108E0FFF7E7FC02463B69D31AC5
:10111000022B01D903236DE0294B1B6803F00073F8
:10112000002BF0D17B681B6AB3F5803F08D1244BBC
:10113000DB6A23F00F027B689B6821491343CB6273
:101140001F4B5B6823F474127B68196A7B685B6AC7
:101150000B431B4913434B601B4B01221A60FFF7E3
:10116000BBFC386108E0FFF7B7FC02463B69D31AC5
:10117000022B01D903233DE0114B1B6803F00073E0
:10118000002BF0D035E0104B00221A60FFF7A4FCD2
:10119000386108E0FFF7A0FC02463B69D31A022B36
:1011A00001D9032326E0064B1B6803F00073002BD4
:1011B000F0D11EE07B68DB69012B07D1012319E028
:1011C0000010024000700040600042420B4B5B6820
:1011D000FB60FB6803F480327B681B6A9A4206D18D
:1011E000FB6803F470127B685B6A9A4201D00123AA
:1011F00000E0002318461837BD4680BD00100240AD
:1012000080B584B000AF786039607B68002B01D175
:101210000123A0E07B681B6803F00203002B20D0B1
:101220007B681B6803F00403002B05D04C4B5B6804
:101230004B4A43F4E06353607B681B6803F0080388
:10124000002B05D0464B5B68454A43F4605353601E
:10125000434B5B6823F0F0027B689B684049134373
:101260004B607B681B6803F00103002B40D07B6858
:101270005B68012B07D13A4B1B6803F40033002B4A
:1012800015D1012367E07B685B68022B07D1344BE3
:101290001B6803F00073002B09D101235BE0304B86
:1012A0001B6803F00203002B01D1012353E02C4BF8
:1012B0005B6823F003027B685B68294913434B603A
:1012C000FFF70AFCF8600AE0FFF706FC0246FB683D
:1012D000D31A41F28832934201D903233BE0204BD9
:1012E0005B6803F00C027B685B689B009A42EBD161
:1012F0007B681B6803F00403002B08D0184B5B6865
:1013000023F4E0627B68DB68154913434B607B681C
:101310001B6803F00803002B09D0114B5B6823F412
:1013200060527B681B69DB000D4913434B6000F082
:101330001FF802460A4B5B681B0903F00F030949BB
:10134000CB5C22FA03F3084A1360084B1B6818466B
:10135000FFF780FB002318461037BD4680BD00BF55
:1013600000100240001500080000002004000020CA
:1013700090B48EB000AF2A4B07F114040FCB84E871
:101380000F00284B3C1D0FCB84E80F000023FB62AD
:101390000023BB6200237B6300237B6200233B634B
:1013A000214B5B68FB62FB6A03F00C03042B02D049
:1013B000082B03D02AE01D4B3B632AE0FB6A9B0C01
:1013C00003F00F0338333B4413F8243C7B62FB6A81
:1013D00003F48033002B11D0134BDB6A03F00F03AF
:1013E00038333B4413F8343CBB627B6A0F4A03FB3F
:1013F00002F2BB6AB2FBF3F37B6304E07B6A0C4A44
:1014000002FB03F37B637B6B3B6302E0074B3B63B5
:1014100000BF3B6B18463837BD4690BC704700BFD5
:10142000E0140008F01400080010024000127A00D6
:1014300000093D0080B485B000AF78600A4B1B689E
:101440000A4AA2FB03235B0A7A6802FB03F3FB60F0
:1014500000BFFB685A1EFA60002BF9D100BF00BF25
:101460001437BD4680BC704700000020D34D621089
:1014700070B500260C4D0D4C641BA410A64209D17A
:1014800000F022F800260A4D0A4C641BA410A64264
:1014900005D170BD55F8043B98470136EEE755F885
:1014A000043B98470136F2E71015000810150008B4
:1014B000101500081415000803460244934200D199
:1014C000704703F8011BF9E7F8B500BFF8BC08BC8A
:1014D0009E467047F8B500BFF8BC08BC9E467047F2
:1014E00002030405060708090A0B0C0D0E0F101065
:1014F0000102030405060708090A0B0C0D0E0F1064
:1015000000000000000000000102030406070809B3
:04151000F5010008D9
:04151400D1010008F9
:0C1518000024F40010000000010000009E
:040000050800038963
:00000001FF
